{
  "transactions": [
    {
      "hash": null,
      "transactionType": "CALL",
      "contractName": null,
      "contractAddress": "0xd729a94d6366a4feac4a6869c8b3573cee4701a9",
      "function": "setForwarderAddress(address)",
      "arguments": [
        "0xF458D621885E29a5003eA9bbBA5280D54e19b1Ce"
      ],
      "transaction": {
        "from": "0x42a7b811d096cba5b3bbf346361106bde275c8d7",
        "to": "0xd729a94d6366a4feac4a6869c8b3573cee4701a9",
        "gas": "0x11b93",
        "value": "0x0",
        "input": "0xd777cc6d000000000000000000000000f458d621885e29a5003ea9bbba5280d54e19b1ce",
        "nonce": "0x1d",
        "chainId": "0x89"
      },
      "additionalContracts": [],
      "isFixedGasLimit": false
    }
  ],
  "receipts": [],
  "libraries": [],
  "pending": [],
  "returns": {},
  "timestamp": 1771899629084,
  "chain": 137,
  "commit": "511ea1b"
}