{
  "transactions": [
    {
      "hash": "0x63050a3277dc81e781c2fd9b615519463d7478e6a5020c49053f3263314bf3e4",
      "transactionType": "CALL",
      "contractName": null,
      "contractAddress": "0xd729a94d6366a4feac4a6869c8b3573cee4701a9",
      "function": "setForwarderAddress(address)",
      "arguments": [
        "0xF458D621885E29a5003eA9bbBA5280D54e19b1Ce"
      ],
      "transaction": {
        "from": "0x42a7b811d096cba5b3bbf346361106bde275c8d7",
        "to": "0xd729a94d6366a4feac4a6869c8b3573cee4701a9",
        "gas": "0x11b93",
        "value": "0x0",
        "input": "0xd777cc6d000000000000000000000000f458d621885e29a5003ea9bbba5280d54e19b1ce",
        "nonce": "0x1d",
        "chainId": "0x89"
      },
      "additionalContracts": [],
      "isFixedGasLimit": false
    }
  ],
  "receipts": [
    {
      "status": "0x1",
      "cumulativeGasUsed": "0xa77f20",
      "logs": [
        {
          "address": "0xd729a94d6366a4feac4a6869c8b3573cee4701a9",
          "topics": [
            "0x039ad854736757070884dd787ef1a7f58db33546639d1f3efddcf4a33fb8997e",
            "0x0000000000000000000000000000000000000000000000000000000000000000",
            "0x000000000000000000000000f458d621885e29a5003ea9bbba5280d54e19b1ce"
          ],
          "data": "0x",
          "blockHash": "0x0d6364184c8a838d1c49564b6573252c4ff5e1eb521f0082e8d88931486cfcb5",
          "blockNumber": "0x4f86d96",
          "blockTimestamp": "0x699d0b48",
          "transactionHash": "0x63050a3277dc81e781c2fd9b615519463d7478e6a5020c49053f3263314bf3e4",
          "transactionIndex": "0x33",
          "logIndex": "0x215",
          "removed": false
        },
        {
          "address": "0x0000000000000000000000000000000000001010",
          "topics": [
            "0x4dfe1bbbcf077ddc3e01291eea2d5c70c2b422b415d95645b9adcfd678cb1d63",
            "0x0000000000000000000000000000000000000000000000000000000000001010",
            "0x00000000000000000000000042a7b811d096cba5b3bbf346361106bde275c8d7",
            "0x0000000000000000000000007ee41d8a25641000661b1ef5e6ae8a00400466b0"
          ],
          "data": "0x00000000000000000000000000000000000000000000000000193ffed932e2000000000000000000000000000000000000000000000000004563befbcd3120000000000000000000000000000000000000000000000fd70b5a78dc0c408d81ad000000000000000000000000000000000000000000000000454a7efcf3fe3e000000000000000000000000000000000000000000000fd70b5a921c0b19c063ad",
          "blockHash": "0x0d6364184c8a838d1c49564b6573252c4ff5e1eb521f0082e8d88931486cfcb5",
          "blockNumber": "0x4f86d96",
          "blockTimestamp": "0x699d0b48",
          "transactionHash": "0x63050a3277dc81e781c2fd9b615519463d7478e6a5020c49053f3263314bf3e4",
          "transactionIndex": "0x33",
          "logIndex": "0x216",
          "removed": false
        }
      ],
      "logsBloom": "0x00000000000000000000000000000000000000000000000002000000002000000000000000000000000000000000000000008000000000000000000000000000000000080000000000000000000000800000080000000000000100000000000000000000020000000000000000000800000000000000000880000000000000000000000000000100020000000400000000000000000000000000000000000000200000000000000000000000000000080000000000000000000000000000004000000000000040000001000000000000000000400000000000100000000020000000000000000000002000000000000000000000000000000010000000180000",
      "type": "0x2",
      "transactionHash": "0x63050a3277dc81e781c2fd9b615519463d7478e6a5020c49053f3263314bf3e4",
      "transactionIndex": "0x33",
      "blockHash": "0x0d6364184c8a838d1c49564b6573252c4ff5e1eb521f0082e8d88931486cfcb5",
      "blockNumber": "0x4f86d96",
      "gasUsed": "0xcd4f",
      "effectiveGasPrice": "0x2e365f4cf3",
      "from": "0x42a7b811d096cba5b3bbf346361106bde275c8d7",
      "to": "0xd729a94d6366a4feac4a6869c8b3573cee4701a9",
      "contractAddress": null
    }
  ],
  "libraries": [],
  "pending": [],
  "returns": {},
  "timestamp": 1771899721079,
  "chain": 137,
  "commit": "511ea1b"
}