{
  "transactions": [
    {
      "hash": "0xa9a378d28034873b832dd812d59e5b4c550e56ce899e38fdf85b2b7dd2f6f897",
      "transactionType": "CALL",
      "contractName": null,
      "contractAddress": "0xdcb242588414beaad781232b3af0eb967e4f771f",
      "function": "createMarket((string,string,uint256,uint256,address,uint32,uint16,uint16))",
      "arguments": [
        "(will-jesus-christ-return-before-2027, will-jesus-christ-return-before-2027, 69324317355037271422943965141382095011871956039434394956830818206664869608517, 51797157743046504218541616681751597845468055908324407922581755135522797852101, 0x54db3299809370E4821bCd6C6A884ED5C32283c4, 1798675200, 99, 1)"
      ],
      "transaction": {
        "from": "0x42a7b811d096cba5b3bbf346361106bde275c8d7",
        "to": "0xdcb242588414beaad781232b3af0eb967e4f771f",
        "gas": "0x80a9d",
        "value": "0x0",
        "input": "0x495ff5d300000000000000000000000000000000000000000000000000000000000000200000000000000000000000000000000000000000000000000000000000000100000000000000000000000000000000000000000000000000000000000000016099442c53414ee3657480d5943bc488a63f5a97ecf5de00d7abf16bf75a20fc4572842700e2e7a0e9685ca8c16860981f4aa22f79ebdc626610a02ec21ad915c500000000000000000000000054db3299809370e4821bcd6c6a884ed5c32283c4000000000000000000000000000000000000000000000000000000006b359b0000000000000000000000000000000000000000000000000000000000000000630000000000000000000000000000000000000000000000000000000000000001000000000000000000000000000000000000000000000000000000000000002477696c6c2d6a657375732d6368726973742d72657475726e2d6265666f72652d3230323700000000000000000000000000000000000000000000000000000000000000000000000000000000000000000000000000000000000000000000002477696c6c2d6a657375732d6368726973742d72657475726e2d6265666f72652d3230323700000000000000000000000000000000000000000000000000000000",
        "nonce": "0xd",
        "chainId": "0x89"
      },
      "additionalContracts": [
        {
          "transactionType": "CREATE",
          "contractName": null,
          "address": "0x26dcce9178a1c4be5476d1dc96d5f54a461ec4d3",
          "initCode": "0x60523d8160223d3973dcb242588414beaad781232b3af0eb967e4f771f60195155f3363d3d373d3d363d602036600436635c60da1b60e01b36527fa3f0ad74e5423aebfd80d3ef4346578335a9a72aeaee59ff6cb3582b35133d50545afa5036515af43d6000803e604d573d6000fd5b3d6000f3"
        }
      ],
      "isFixedGasLimit": false
    }
  ],
  "receipts": [
    {
      "status": "0x1",
      "cumulativeGasUsed": "0x261ebe7",
      "logs": [
        {
          "address": "0x26dcce9178a1c4be5476d1dc96d5f54a461ec4d3",
          "topics": [
            "0xc7f505b2f371ae2175ee4913f4499e1f2633a7b5936321eed1cdaeb6115181d2"
          ],
          "data": "0x0000000000000000000000000000000000000000000000000000000000000001",
          "blockHash": "0xcc8ae00e61e735b4053ba2db71749fa0c832b59b86e091a07d1d451777479d24",
          "blockNumber": "0x4f489ba",
          "blockTimestamp": "0x6995438c",
          "transactionHash": "0xa9a378d28034873b832dd812d59e5b4c550e56ce899e38fdf85b2b7dd2f6f897",
          "transactionIndex": "0xa2",
          "logIndex": "0x88a",
          "removed": false
        },
        {
          "address": "0xdcb242588414beaad781232b3af0eb967e4f771f",
          "topics": [
            "0x5782871108076c6bd3c3b44838618f99dc28d9ac4a315df72420c59cee2a955f",
            "0xae9229237c6b1429d1c1b6972dcf0e7ecdbe3f4d8530d70bf6e6efbcac6094ea"
          ],
          "data": "0x",
          "blockHash": "0xcc8ae00e61e735b4053ba2db71749fa0c832b59b86e091a07d1d451777479d24",
          "blockNumber": "0x4f489ba",
          "blockTimestamp": "0x6995438c",
          "transactionHash": "0xa9a378d28034873b832dd812d59e5b4c550e56ce899e38fdf85b2b7dd2f6f897",
          "transactionIndex": "0xa2",
          "logIndex": "0x88b",
          "removed": false
        },
        {
          "address": "0x0000000000000000000000000000000000001010",
          "topics": [
            "0x4dfe1bbbcf077ddc3e01291eea2d5c70c2b422b415d95645b9adcfd678cb1d63",
            "0x0000000000000000000000000000000000000000000000000000000000001010",
            "0x00000000000000000000000042a7b811d096cba5b3bbf346361106bde275c8d7",
            "0x0000000000000000000000007ee41d8a25641000661b1ef5e6ae8a00400466b0"
          ],
          "data": "0x00000000000000000000000000000000000000000000000000999feeef25e000000000000000000000000000000000000000000000000000973be8b74759f8740000000000000000000000000000000000000000000c2230b206cac849ce686000000000000000000000000000000000000000000000000096a248c8583418740000000000000000000000000000000000000000000c2230b2a06ab738f44860",
          "blockHash": "0xcc8ae00e61e735b4053ba2db71749fa0c832b59b86e091a07d1d451777479d24",
          "blockNumber": "0x4f489ba",
          "blockTimestamp": "0x6995438c",
          "transactionHash": "0xa9a378d28034873b832dd812d59e5b4c550e56ce899e38fdf85b2b7dd2f6f897",
          "transactionIndex": "0xa2",
          "logIndex": "0x88c",
          "removed": false
        }
      ],
      "logsBloom": "0x00000000000000000000000000000000000000000000000000000000000000000000000000000000000000000000000000008000000000000000000000010000000000000040000000000000000000800000000000000000000100000000000080000000000080000000000000000000000000000000000880000200000400000000000000000100020800000400000008000000000080000000000000000000200000000000000000000020000000000000000008000000000000000000004000000000000040000801000000000000000000400004000000100000000000080000000000000000000000000000000000000000000000000000000000100800",
      "type": "0x2",
      "transactionHash": "0xa9a378d28034873b832dd812d59e5b4c550e56ce899e38fdf85b2b7dd2f6f897",
      "transactionIndex": "0xa2",
      "blockHash": "0xcc8ae00e61e735b4053ba2db71749fa0c832b59b86e091a07d1d451777479d24",
      "blockNumber": "0x4f489ba",
      "gasUsed": "0x57f9a",
      "effectiveGasPrice": "0x73f98108ae",
      "from": "0x42a7b811d096cba5b3bbf346361106bde275c8d7",
      "to": "0xdcb242588414beaad781232b3af0eb967e4f771f",
      "contractAddress": null
    }
  ],
  "libraries": [],
  "pending": [],
  "returns": {},
  "timestamp": 1771389837863,
  "chain": 137,
  "commit": "6d8686f"
}