{
  "transactions": [
    {
      "hash": "0xceed0084571b659e61e183102669a927ea16295b8dd8125730249d8af9f65086",
      "transactionType": "CALL",
      "contractName": null,
      "contractAddress": "0xd729a94d6366a4feac4a6869c8b3573cee4701a9",
      "function": "createMarket((string,string,uint256,uint256,address,address,uint32,uint16,uint16))",
      "arguments": [
        "(will-jesus-christ-return-before-2027, will-jesus-christ-return-before-2027, 69324317355037271422943965141382095011871956039434394956830818206664869608517, 51797157743046504218541616681751597845468055908324407922581755135522797852101, 0x54db3299809370E4821bCd6C6A884ED5C32283c4, 0x0000000000000000000000000000000000000000, 1798675200, 99, 1)"
      ],
      "transaction": {
        "from": "0x42a7b811d096cba5b3bbf346361106bde275c8d7",
        "to": "0xd729a94d6366a4feac4a6869c8b3573cee4701a9",
        "gas": "0x88c45",
        "value": "0x0",
        "input": "0xd10404f900000000000000000000000000000000000000000000000000000000000000200000000000000000000000000000000000000000000000000000000000000120000000000000000000000000000000000000000000000000000000000000018099442c53414ee3657480d5943bc488a63f5a97ecf5de00d7abf16bf75a20fc4572842700e2e7a0e9685ca8c16860981f4aa22f79ebdc626610a02ec21ad915c500000000000000000000000054db3299809370e4821bcd6c6a884ed5c32283c40000000000000000000000000000000000000000000000000000000000000000000000000000000000000000000000000000000000000000000000006b359b0000000000000000000000000000000000000000000000000000000000000000630000000000000000000000000000000000000000000000000000000000000001000000000000000000000000000000000000000000000000000000000000002477696c6c2d6a657375732d6368726973742d72657475726e2d6265666f72652d3230323700000000000000000000000000000000000000000000000000000000000000000000000000000000000000000000000000000000000000000000002477696c6c2d6a657375732d6368726973742d72657475726e2d6265666f72652d3230323700000000000000000000000000000000000000000000000000000000",
        "nonce": "0x12",
        "chainId": "0x89"
      },
      "additionalContracts": [
        {
          "transactionType": "CREATE",
          "contractName": null,
          "address": "0xfb4a10d61db3e77fb16ce34a973f7c473ac8b5fe",
          "initCode": "0x60523d8160223d3973d729a94d6366a4feac4a6869c8b3573cee4701a960195155f3363d3d373d3d363d602036600436635c60da1b60e01b36527fa3f0ad74e5423aebfd80d3ef4346578335a9a72aeaee59ff6cb3582b35133d50545afa5036515af43d6000803e604d573d6000fd5b3d6000f3"
        }
      ],
      "isFixedGasLimit": false
    }
  ],
  "receipts": [
    {
      "status": "0x1",
      "cumulativeGasUsed": "0xc5f4e6",
      "logs": [
        {
          "address": "0xfb4a10d61db3e77fb16ce34a973f7c473ac8b5fe",
          "topics": [
            "0xc7f505b2f371ae2175ee4913f4499e1f2633a7b5936321eed1cdaeb6115181d2"
          ],
          "data": "0x0000000000000000000000000000000000000000000000000000000000000001",
          "blockHash": "0x7ffeb1700a6f500a0a759be12376d2b7613f2d7fca9dc6e5d3e3fc70619ea80a",
          "blockNumber": "0x4f53032",
          "blockTimestamp": "0x6996907c",
          "transactionHash": "0xceed0084571b659e61e183102669a927ea16295b8dd8125730249d8af9f65086",
          "transactionIndex": "0x31",
          "logIndex": "0x253",
          "removed": false
        },
        {
          "address": "0xd729a94d6366a4feac4a6869c8b3573cee4701a9",
          "topics": [
            "0x4e9aad05bdd34cf12eb4a61a32c74b57e31c2450f3c64f97a6ef23b806806b2b",
            "0x6a3c051e47f860fe5264519dcdef5ca08fe66c433a6d33a771cb3e2aa7fe5c66"
          ],
          "data": "0x",
          "blockHash": "0x7ffeb1700a6f500a0a759be12376d2b7613f2d7fca9dc6e5d3e3fc70619ea80a",
          "blockNumber": "0x4f53032",
          "blockTimestamp": "0x6996907c",
          "transactionHash": "0xceed0084571b659e61e183102669a927ea16295b8dd8125730249d8af9f65086",
          "transactionIndex": "0x31",
          "logIndex": "0x254",
          "removed": false
        },
        {
          "address": "0x0000000000000000000000000000000000001010",
          "topics": [
            "0x4dfe1bbbcf077ddc3e01291eea2d5c70c2b422b415d95645b9adcfd678cb1d63",
            "0x0000000000000000000000000000000000000000000000000000000000001010",
            "0x00000000000000000000000042a7b811d096cba5b3bbf346361106bde275c8d7",
            "0x0000000000000000000000007ee41d8a25641000661b1ef5e6ae8a00400466b0"
          ],
          "data": "0x00000000000000000000000000000000000000000000000000ace7fab77570000000000000000000000000000000000000000000000000005f7a36f17500c3e90000000000000000000000000000000000000000000cdbc581ec1768bd7cb85b0000000000000000000000000000000000000000000000005ecd4ef6bd8b53e90000000000000000000000000000000000000000000cdbc58298ff6374f2285b",
          "blockHash": "0x7ffeb1700a6f500a0a759be12376d2b7613f2d7fca9dc6e5d3e3fc70619ea80a",
          "blockNumber": "0x4f53032",
          "blockTimestamp": "0x6996907c",
          "transactionHash": "0xceed0084571b659e61e183102669a927ea16295b8dd8125730249d8af9f65086",
          "transactionIndex": "0x31",
          "logIndex": "0x255",
          "removed": false
        }
      ],
      "logsBloom": "0x00000000000000000000000080000000000000000000000000000000000000000000000000000000000000000000000000008000000000000000000000000000000000080000000008000000000000800000000100000000000100000000000000000000000000000000000000000000000000000010000880000000000000000000000004000100020800000400400000000000000080000000000000000000200000000000000000000000000000000000000000000000000000000000004000000000000040000001000000000000000000400004000000100000002000000000800000000000000000000000000000000020000000000010000000100000",
      "type": "0x2",
      "transactionHash": "0xceed0084571b659e61e183102669a927ea16295b8dd8125730249d8af9f65086",
      "transactionIndex": "0x31",
      "blockHash": "0x7ffeb1700a6f500a0a759be12376d2b7613f2d7fca9dc6e5d3e3fc70619ea80a",
      "blockNumber": "0x4f53032",
      "gasUsed": "0x63045",
      "effectiveGasPrice": "0x523019f334",
      "from": "0x42a7b811d096cba5b3bbf346361106bde275c8d7",
      "to": "0xd729a94d6366a4feac4a6869c8b3573cee4701a9",
      "contractAddress": null
    }
  ],
  "libraries": [],
  "pending": [],
  "returns": {},
  "timestamp": 1771475069319,
  "chain": 137,
  "commit": "41ef7e1"
}